{
  "_format": "hh-sol-artifact-1",
  "contractName": "DegenToken",
  "sourceName": "contracts/DegenToken.sol",
  "abi": [
    {
      "inputs": [],
      "stateMutability": "nonpayable",
      "type": "constructor"
    },
    {
      "anonymous": false,
      "inputs": [
        {
          "indexed": true,
          "internalType": "address",
          "name": "owner",
          "type": "address"
        },
        {
          "indexed": true,
          "internalType": "address",
          "name": "spender",
          "type": "address"
        },
        {
          "indexed": false,
          "internalType": "uint256",
          "name": "value",
          "type": "uint256"
        }
      ],
      "name": "Approval",
      "type": "event"
    },
    {
      "anonymous": false,
      "inputs": [
        {
          "indexed": true,
          "internalType": "address",
          "name": "previousOwner",
          "type": "address"
        },
        {
          "indexed": true,
          "internalType": "address",
          "name": "newOwner",
          "type": "address"
        }
      ],
      "name": "OwnershipTransferred",
      "type": "event"
    },
    {
      "anonymous": false,
      "inputs": [
        {
          "indexed": true,
          "internalType": "address",
          "name": "from",
          "type": "address"
        },
        {
          "indexed": true,
          "internalType": "address",
          "name": "to",
          "type": "address"
        },
        {
          "indexed": false,
          "internalType": "uint256",
          "name": "value",
          "type": "uint256"
        }
      ],
      "name": "Transfer",
      "type": "event"
    },
    {
      "inputs": [],
      "name": "DGNshopmenu",
      "outputs": [
        {
          "internalType": "string",
          "name": "",
          "type": "string"
        }
      ],
      "stateMutability": "pure",
      "type": "function"
    },
    {
      "inputs": [
        {
          "internalType": "address",
          "name": "owner",
          "type": "address"
        },
        {
          "internalType": "address",
          "name": "spender",
          "type": "address"
        }
      ],
      "name": "allowance",
      "outputs": [
        {
          "internalType": "uint256",
          "name": "",
          "type": "uint256"
        }
      ],
      "stateMutability": "view",
      "type": "function"
    },
    {
      "inputs": [
        {
          "internalType": "address",
          "name": "spender",
          "type": "address"
        },
        {
          "internalType": "uint256",
          "name": "amount",
          "type": "uint256"
        }
      ],
      "name": "approve",
      "outputs": [
        {
          "internalType": "bool",
          "name": "",
          "type": "bool"
        }
      ],
      "stateMutability": "nonpayable",
      "type": "function"
    },
    {
      "inputs": [
        {
          "internalType": "address",
          "name": "account",
          "type": "address"
        }
      ],
      "name": "balanceOf",
      "outputs": [
        {
          "internalType": "uint256",
          "name": "",
          "type": "uint256"
        }
      ],
      "stateMutability": "view",
      "type": "function"
    },
    {
      "inputs": [
        {
          "internalType": "uint256",
          "name": "amount",
          "type": "uint256"
        }
      ],
      "name": "burnDGN",
      "outputs": [],
      "stateMutability": "nonpayable",
      "type": "function"
    },
    {
      "inputs": [],
      "name": "checkbalance",
      "outputs": [
        {
          "internalType": "uint256",
          "name": "",
          "type": "uint256"
        }
      ],
      "stateMutability": "view",
      "type": "function"
    },
    {
      "inputs": [],
      "name": "decimals",
      "outputs": [
        {
          "internalType": "uint8",
          "name": "",
          "type": "uint8"
        }
      ],
      "stateMutability": "view",
      "type": "function"
    },
    {
      "inputs": [
        {
          "internalType": "address",
          "name": "spender",
          "type": "address"
        },
        {
          "internalType": "uint256",
          "name": "subtractedValue",
          "type": "uint256"
        }
      ],
      "name": "decreaseAllowance",
      "outputs": [
        {
          "internalType": "bool",
          "name": "",
          "type": "bool"
        }
      ],
      "stateMutability": "nonpayable",
      "type": "function"
    },
    {
      "inputs": [
        {
          "internalType": "address",
          "name": "spender",
          "type": "address"
        },
        {
          "internalType": "uint256",
          "name": "addedValue",
          "type": "uint256"
        }
      ],
      "name": "increaseAllowance",
      "outputs": [
        {
          "internalType": "bool",
          "name": "",
          "type": "bool"
        }
      ],
      "stateMutability": "nonpayable",
      "type": "function"
    },
    {
      "inputs": [
        {
          "internalType": "uint256",
          "name": "",
          "type": "uint256"
        }
      ],
      "name": "items",
      "outputs": [
        {
          "internalType": "uint256",
          "name": "",
          "type": "uint256"
        }
      ],
      "stateMutability": "view",
      "type": "function"
    },
    {
      "inputs": [
        {
          "internalType": "address",
          "name": "to",
          "type": "address"
        },
        {
          "internalType": "uint256",
          "name": "amount",
          "type": "uint256"
        }
      ],
      "name": "mintDGN",
      "outputs": [],
      "stateMutability": "nonpayable",
      "type": "function"
    },
    {
      "inputs": [],
      "name": "name",
      "outputs": [
        {
          "internalType": "string",
          "name": "",
          "type": "string"
        }
      ],
      "stateMutability": "view",
      "type": "function"
    },
    {
      "inputs": [],
      "name": "owner",
      "outputs": [
        {
          "internalType": "address",
          "name": "",
          "type": "address"
        }
      ],
      "stateMutability": "view",
      "type": "function"
    },
    {
      "inputs": [
        {
          "internalType": "uint256",
          "name": "itemno",
          "type": "uint256"
        }
      ],
      "name": "redeemshopitems",
      "outputs": [],
      "stateMutability": "nonpayable",
      "type": "function"
    },
    {
      "inputs": [],
      "name": "renounceOwnership",
      "outputs": [],
      "stateMutability": "nonpayable",
      "type": "function"
    },
    {
      "inputs": [],
      "name": "symbol",
      "outputs": [
        {
          "internalType": "string",
          "name": "",
          "type": "string"
        }
      ],
      "stateMutability": "view",
      "type": "function"
    },
    {
      "inputs": [],
      "name": "totalSupply",
      "outputs": [
        {
          "internalType": "uint256",
          "name": "",
          "type": "uint256"
        }
      ],
      "stateMutability": "view",
      "type": "function"
    },
    {
      "inputs": [
        {
          "internalType": "address",
          "name": "to",
          "type": "address"
        },
        {
          "internalType": "uint256",
          "name": "amount",
          "type": "uint256"
        }
      ],
      "name": "transfer",
      "outputs": [
        {
          "internalType": "bool",
          "name": "",
          "type": "bool"
        }
      ],
      "stateMutability": "nonpayable",
      "type": "function"
    },
    {
      "inputs": [
        {
          "internalType": "address",
          "name": "to",
          "type": "address"
        },
        {
          "internalType": "uint256",
          "name": "amount",
          "type": "uint256"
        }
      ],
      "name": "transferDGN",
      "outputs": [],
      "stateMutability": "nonpayable",
      "type": "function"
    },
    {
      "inputs": [
        {
          "internalType": "address",
          "name": "from",
          "type": "address"
        },
        {
          "internalType": "address",
          "name": "to",
          "type": "address"
        },
        {
          "internalType": "uint256",
          "name": "amount",
          "type": "uint256"
        }
      ],
      "name": "transferFrom",
      "outputs": [
        {
          "internalType": "bool",
          "name": "",
          "type": "bool"
        }
      ],
      "stateMutability": "nonpayable",
      "type": "function"
    },
    {
      "inputs": [
        {
          "internalType": "address",
          "name": "newOwner",
          "type": "address"
        }
      ],
      "name": "transferOwnership",
      "outputs": [],
      "stateMutability": "nonpayable",
      "type": "function"
    }
  ],
  "bytecode": "0x60806040523480156200001157600080fd5b506040518060400160405280600581526020017f446567656e0000000000000000000000000000000000000000000000000000008152506040518060400160405280600381526020017f44474e000000000000000000000000000000000000000000000000000000000081525081600390816200008f91906200047a565b508060049081620000a191906200047a565b505050620000c4620000b86200013260201b60201c565b6200013a60201b60201c565b60646006600060018152602001908152602001600020819055506032600660006002815260200190815260200160002081905550603c600660006003815260200190815260200160002081905550601e60066000600481526020019081526020016000208190555062000561565b600033905090565b6000600560009054906101000a900473ffffffffffffffffffffffffffffffffffffffff16905081600560006101000a81548173ffffffffffffffffffffffffffffffffffffffff021916908373ffffffffffffffffffffffffffffffffffffffff1602179055508173ffffffffffffffffffffffffffffffffffffffff168173ffffffffffffffffffffffffffffffffffffffff167f8be0079c531659141344cd1fd0a4f28419497f9722a3daafe3b4186f6b6457e060405160405180910390a35050565b600081519050919050565b7f4e487b7100000000000000000000000000000000000000000000000000000000600052604160045260246000fd5b7f4e487b7100000000000000000000000000000000000000000000000000000000600052602260045260246000fd5b600060028204905060018216806200028257607f821691505b6020821081036200029857620002976200023a565b5b50919050565b60008190508160005260206000209050919050565b60006020601f8301049050919050565b600082821b905092915050565b600060088302620003027fffffffffffffffffffffffffffffffffffffffffffffffffffffffffffffffff82620002c3565b6200030e8683620002c3565b95508019841693508086168417925050509392505050565b6000819050919050565b6000819050919050565b60006200035b620003556200034f8462000326565b62000330565b62000326565b9050919050565b6000819050919050565b62000377836200033a565b6200038f620003868262000362565b848454620002d0565b825550505050565b600090565b620003a662000397565b620003b38184846200036c565b505050565b5b81811015620003db57620003cf6000826200039c565b600181019050620003b9565b5050565b601f8211156200042a57620003f4816200029e565b620003ff84620002b3565b810160208510156200040f578190505b620004276200041e85620002b3565b830182620003b8565b50505b505050565b600082821c905092915050565b60006200044f600019846008026200042f565b1980831691505092915050565b60006200046a83836200043c565b9150826002028217905092915050565b620004858262000200565b67ffffffffffffffff811115620004a157620004a06200020b565b5b620004ad825462000269565b620004ba828285620003df565b600060209050601f831160018114620004f25760008415620004dd578287015190505b620004e985826200045c565b86555062000559565b601f19841662000502866200029e565b60005b828110156200052c5784890151825560018201915060208501945060208101905062000505565b868310156200054c578489015162000548601f8916826200043c565b8355505b6001600288020188555050505b505050505050565b61201380620005716000396000f3fe608060405234801561001057600080fd5b50600436106101375760003560e01c8063715018a6116100b8578063a9059cbb1161007c578063a9059cbb1461033e578063aa08a35f1461036e578063bfb231d21461038a578063dd62ed3e146103ba578063eaa9600b146103ea578063f2fde38b1461040857610137565b8063715018a6146102ac5780638aba72ae146102b65780638da5cb5b146102d257806395d89b41146102f0578063a457c2d71461030e57610137565b8063313ce567116100ff578063313ce567146101f657806337f111a41461021457806339509351146102305780634f53e2951461026057806370a082311461027c57610137565b806306fdde031461013c578063095ea7b31461015a578063179a7f7c1461018a57806318160ddd146101a857806323b872dd146101c6575b600080fd5b610144610424565b604051610151919061145c565b60405180910390f35b610174600480360381019061016f9190611517565b6104b6565b6040516101819190611572565b60405180910390f35b6101926104d9565b60405161019f919061145c565b60405180910390f35b6101b06104ff565b6040516101bd919061159c565b60405180910390f35b6101e060048036038101906101db91906115b7565b610509565b6040516101ed9190611572565b60405180910390f35b6101fe610538565b60405161020b9190611626565b60405180910390f35b61022e60048036038101906102299190611641565b610541565b005b61024a60048036038101906102459190611517565b61061d565b6040516102579190611572565b60405180910390f35b61027a60048036038101906102759190611517565b610654565b005b6102966004803603810190610291919061166e565b61066a565b6040516102a3919061159c565b60405180910390f35b6102b46106b2565b005b6102d060048036038101906102cb9190611517565b6106c6565b005b6102da61072c565b6040516102e791906116aa565b60405180910390f35b6102f8610756565b604051610305919061145c565b60405180910390f35b61032860048036038101906103239190611517565b6107e8565b6040516103359190611572565b60405180910390f35b61035860048036038101906103539190611517565b61085f565b6040516103659190611572565b60405180910390f35b61038860048036038101906103839190611641565b610882565b005b6103a4600480360381019061039f9190611641565b6108e5565b6040516103b1919061159c565b60405180910390f35b6103d460048036038101906103cf91906116c5565b6108fd565b6040516103e1919061159c565b60405180910390f35b6103f2610984565b6040516103ff919061159c565b60405180910390f35b610422600480360381019061041d919061166e565b610a05565b005b60606003805461043390611734565b80601f016020809104026020016040519081016040528092919081815260200182805461045f90611734565b80156104ac5780601f10610481576101008083540402835291602001916104ac565b820191906000526020600020905b81548152906001019060200180831161048f57829003601f168201915b5050505050905090565b6000806104c1610a88565b90506104ce818585610a90565b600191505092915050565b606060006040518060a00160405280606f8152602001611f6f606f913990508091505090565b6000600254905090565b600080610514610a88565b9050610521858285610c59565b61052c858585610ce5565b60019150509392505050565b60006012905090565b600081118015610552575060048111155b156105df5760066000828152602001908152602001600020546105743361066a565b10156105b5576040517f08c379a00000000000000000000000000000000000000000000000000000000081526004016105ac906117d7565b60405180910390fd5b6105d96105c061072c565b600660008481526020019081526020016000205461085f565b5061061a565b6040517f08c379a000000000000000000000000000000000000000000000000000000000815260040161061190611843565b60405180910390fd5b50565b600080610628610a88565b905061064981858561063a85896108fd565b6106449190611892565b610a90565b600191505092915050565b61065c610f5b565b6106668282610fd9565b5050565b60008060008373ffffffffffffffffffffffffffffffffffffffff1673ffffffffffffffffffffffffffffffffffffffff168152602001908152602001600020549050919050565b6106ba610f5b565b6106c4600061112f565b565b806106d03361066a565b1015610711576040517f08c379a0000000000000000000000000000000000000000000000000000000008152600401610708906117d7565b60405180910390fd5b61071b33826104b6565b50610727338383610509565b505050565b6000600560009054906101000a900473ffffffffffffffffffffffffffffffffffffffff16905090565b60606004805461076590611734565b80601f016020809104026020016040519081016040528092919081815260200182805461079190611734565b80156107de5780601f106107b3576101008083540402835291602001916107de565b820191906000526020600020905b8154815290600101906020018083116107c157829003601f168201915b5050505050905090565b6000806107f3610a88565b9050600061080182866108fd565b905083811015610846576040517f08c379a000000000000000000000000000000000000000000000000000000000815260040161083d90611938565b60405180910390fd5b6108538286868403610a90565b60019250505092915050565b60008061086a610a88565b9050610877818585610ce5565b600191505092915050565b8061088c3361066a565b10156108cd576040517f08c379a00000000000000000000000000000000000000000000000000000000081526004016108c4906117d7565b60405180910390fd5b6108d733826104b6565b506108e233826111f5565b50565b60066020528060005260406000206000915090505481565b6000600160008473ffffffffffffffffffffffffffffffffffffffff1673ffffffffffffffffffffffffffffffffffffffff16815260200190815260200160002060008373ffffffffffffffffffffffffffffffffffffffff1673ffffffffffffffffffffffffffffffffffffffff16815260200190815260200160002054905092915050565b60003073ffffffffffffffffffffffffffffffffffffffff166370a08231336040518263ffffffff1660e01b81526004016109bf91906116aa565b602060405180830381865afa1580156109dc573d6000803e3d6000fd5b505050506040513d601f19601f82011682018060405250810190610a00919061196d565b905090565b610a0d610f5b565b600073ffffffffffffffffffffffffffffffffffffffff168173ffffffffffffffffffffffffffffffffffffffff1603610a7c576040517f08c379a0000000000000000000000000000000000000000000000000000000008152600401610a7390611a0c565b60405180910390fd5b610a858161112f565b50565b600033905090565b600073ffffffffffffffffffffffffffffffffffffffff168373ffffffffffffffffffffffffffffffffffffffff1603610aff576040517f08c379a0000000000000000000000000000000000000000000000000000000008152600401610af690611a9e565b60405180910390fd5b600073ffffffffffffffffffffffffffffffffffffffff168273ffffffffffffffffffffffffffffffffffffffff1603610b6e576040517f08c379a0000000000000000000000000000000000000000000000000000000008152600401610b6590611b30565b60405180910390fd5b80600160008573ffffffffffffffffffffffffffffffffffffffff1673ffffffffffffffffffffffffffffffffffffffff16815260200190815260200160002060008473ffffffffffffffffffffffffffffffffffffffff1673ffffffffffffffffffffffffffffffffffffffff168152602001908152602001600020819055508173ffffffffffffffffffffffffffffffffffffffff168373ffffffffffffffffffffffffffffffffffffffff167f8c5be1e5ebec7d5bd14f71427d1e84f3dd0314c0f7b2291e5b200ac8c7c3b92583604051610c4c919061159c565b60405180910390a3505050565b6000610c6584846108fd565b90507fffffffffffffffffffffffffffffffffffffffffffffffffffffffffffffffff8114610cdf5781811015610cd1576040517f08c379a0000000000000000000000000000000000000000000000000000000008152600401610cc890611b9c565b60405180910390fd5b610cde8484848403610a90565b5b50505050565b600073ffffffffffffffffffffffffffffffffffffffff168373ffffffffffffffffffffffffffffffffffffffff1603610d54576040517f08c379a0000000000000000000000000000000000000000000000000000000008152600401610d4b90611c2e565b60405180910390fd5b600073ffffffffffffffffffffffffffffffffffffffff168273ffffffffffffffffffffffffffffffffffffffff1603610dc3576040517f08c379a0000000000000000000000000000000000000000000000000000000008152600401610dba90611cc0565b60405180910390fd5b610dce8383836113c2565b60008060008573ffffffffffffffffffffffffffffffffffffffff1673ffffffffffffffffffffffffffffffffffffffff16815260200190815260200160002054905081811015610e54576040517f08c379a0000000000000000000000000000000000000000000000000000000008152600401610e4b90611d52565b60405180910390fd5b8181036000808673ffffffffffffffffffffffffffffffffffffffff1673ffffffffffffffffffffffffffffffffffffffff16815260200190815260200160002081905550816000808573ffffffffffffffffffffffffffffffffffffffff1673ffffffffffffffffffffffffffffffffffffffff168152602001908152602001600020600082825401925050819055508273ffffffffffffffffffffffffffffffffffffffff168473ffffffffffffffffffffffffffffffffffffffff167fddf252ad1be2c89b69c2b068fc378daa952ba7f163c4a11628f55a4df523b3ef84604051610f42919061159c565b60405180910390a3610f558484846113c7565b50505050565b610f63610a88565b73ffffffffffffffffffffffffffffffffffffffff16610f8161072c565b73ffffffffffffffffffffffffffffffffffffffff1614610fd7576040517f08c379a0000000000000000000000000000000000000000000000000000000008152600401610fce90611dbe565b60405180910390fd5b565b600073ffffffffffffffffffffffffffffffffffffffff168273ffffffffffffffffffffffffffffffffffffffff1603611048576040517f08c379a000000000000000000000000000000000000000000000000000000000815260040161103f90611e2a565b60405180910390fd5b611054600083836113c2565b80600260008282546110669190611892565b92505081905550806000808473ffffffffffffffffffffffffffffffffffffffff1673ffffffffffffffffffffffffffffffffffffffff168152602001908152602001600020600082825401925050819055508173ffffffffffffffffffffffffffffffffffffffff16600073ffffffffffffffffffffffffffffffffffffffff167fddf252ad1be2c89b69c2b068fc378daa952ba7f163c4a11628f55a4df523b3ef83604051611117919061159c565b60405180910390a361112b600083836113c7565b5050565b6000600560009054906101000a900473ffffffffffffffffffffffffffffffffffffffff16905081600560006101000a81548173ffffffffffffffffffffffffffffffffffffffff021916908373ffffffffffffffffffffffffffffffffffffffff1602179055508173ffffffffffffffffffffffffffffffffffffffff168173ffffffffffffffffffffffffffffffffffffffff167f8be0079c531659141344cd1fd0a4f28419497f9722a3daafe3b4186f6b6457e060405160405180910390a35050565b600073ffffffffffffffffffffffffffffffffffffffff168273ffffffffffffffffffffffffffffffffffffffff1603611264576040517f08c379a000000000000000000000000000000000000000000000000000000000815260040161125b90611ebc565b60405180910390fd5b611270826000836113c2565b60008060008473ffffffffffffffffffffffffffffffffffffffff1673ffffffffffffffffffffffffffffffffffffffff168152602001908152602001600020549050818110156112f6576040517f08c379a00000000000000000000000000000000000000000000000000000000081526004016112ed90611f4e565b60405180910390fd5b8181036000808573ffffffffffffffffffffffffffffffffffffffff1673ffffffffffffffffffffffffffffffffffffffff1681526020019081526020016000208190555081600260008282540392505081905550600073ffffffffffffffffffffffffffffffffffffffff168373ffffffffffffffffffffffffffffffffffffffff167fddf252ad1be2c89b69c2b068fc378daa952ba7f163c4a11628f55a4df523b3ef846040516113a9919061159c565b60405180910390a36113bd836000846113c7565b505050565b505050565b505050565b600081519050919050565b600082825260208201905092915050565b60005b838110156114065780820151818401526020810190506113eb565b60008484015250505050565b6000601f19601f8301169050919050565b600061142e826113cc565b61143881856113d7565b93506114488185602086016113e8565b61145181611412565b840191505092915050565b600060208201905081810360008301526114768184611423565b905092915050565b600080fd5b600073ffffffffffffffffffffffffffffffffffffffff82169050919050565b60006114ae82611483565b9050919050565b6114be816114a3565b81146114c957600080fd5b50565b6000813590506114db816114b5565b92915050565b6000819050919050565b6114f4816114e1565b81146114ff57600080fd5b50565b600081359050611511816114eb565b92915050565b6000806040838503121561152e5761152d61147e565b5b600061153c858286016114cc565b925050602061154d85828601611502565b9150509250929050565b60008115159050919050565b61156c81611557565b82525050565b60006020820190506115876000830184611563565b92915050565b611596816114e1565b82525050565b60006020820190506115b1600083018461158d565b92915050565b6000806000606084860312156115d0576115cf61147e565b5b60006115de868287016114cc565b93505060206115ef868287016114cc565b925050604061160086828701611502565b9150509250925092565b600060ff82169050919050565b6116208161160a565b82525050565b600060208201905061163b6000830184611617565b92915050565b6000602082840312156116575761165661147e565b5b600061166584828501611502565b91505092915050565b6000602082840312156116845761168361147e565b5b6000611692848285016114cc565b91505092915050565b6116a4816114a3565b82525050565b60006020820190506116bf600083018461169b565b92915050565b600080604083850312156116dc576116db61147e565b5b60006116ea858286016114cc565b92505060206116fb858286016114cc565b9150509250929050565b7f4e487b7100000000000000000000000000000000000000000000000000000000600052602260045260246000fd5b6000600282049050600182168061174c57607f821691505b60208210810361175f5761175e611705565b5b50919050565b7f496e73756666696369616e742042616c616e63652c20416d6f756e742069732060008201527f67726561746572207468616e2062616c616e6365000000000000000000000000602082015250565b60006117c16034836113d7565b91506117cc82611765565b604082019050919050565b600060208201905081810360008301526117f0816117b4565b9050919050565b7f696e76616c6964206974656d206e756d62657200000000000000000000000000600082015250565b600061182d6013836113d7565b9150611838826117f7565b602082019050919050565b6000602082019050818103600083015261185c81611820565b9050919050565b7f4e487b7100000000000000000000000000000000000000000000000000000000600052601160045260246000fd5b600061189d826114e1565b91506118a8836114e1565b92508282019050808211156118c0576118bf611863565b5b92915050565b7f45524332303a2064656372656173656420616c6c6f77616e63652062656c6f7760008201527f207a65726f000000000000000000000000000000000000000000000000000000602082015250565b60006119226025836113d7565b915061192d826118c6565b604082019050919050565b6000602082019050818103600083015261195181611915565b9050919050565b600081519050611967816114eb565b92915050565b6000602082840312156119835761198261147e565b5b600061199184828501611958565b91505092915050565b7f4f776e61626c653a206e6577206f776e657220697320746865207a65726f206160008201527f6464726573730000000000000000000000000000000000000000000000000000602082015250565b60006119f66026836113d7565b9150611a018261199a565b604082019050919050565b60006020820190508181036000830152611a25816119e9565b9050919050565b7f45524332303a20617070726f76652066726f6d20746865207a65726f2061646460008201527f7265737300000000000000000000000000000000000000000000000000000000602082015250565b6000611a886024836113d7565b9150611a9382611a2c565b604082019050919050565b60006020820190508181036000830152611ab781611a7b565b9050919050565b7f45524332303a20617070726f766520746f20746865207a65726f20616464726560008201527f7373000000000000000000000000000000000000000000000000000000000000602082015250565b6000611b1a6022836113d7565b9150611b2582611abe565b604082019050919050565b60006020820190508181036000830152611b4981611b0d565b9050919050565b7f45524332303a20696e73756666696369656e7420616c6c6f77616e6365000000600082015250565b6000611b86601d836113d7565b9150611b9182611b50565b602082019050919050565b60006020820190508181036000830152611bb581611b79565b9050919050565b7f45524332303a207472616e736665722066726f6d20746865207a65726f20616460008201527f6472657373000000000000000000000000000000000000000000000000000000602082015250565b6000611c186025836113d7565b9150611c2382611bbc565b604082019050919050565b60006020820190508181036000830152611c4781611c0b565b9050919050565b7f45524332303a207472616e7366657220746f20746865207a65726f206164647260008201527f6573730000000000000000000000000000000000000000000000000000000000602082015250565b6000611caa6023836113d7565b9150611cb582611c4e565b604082019050919050565b60006020820190508181036000830152611cd981611c9d565b9050919050565b7f45524332303a207472616e7366657220616d6f756e742065786365656473206260008201527f616c616e63650000000000000000000000000000000000000000000000000000602082015250565b6000611d3c6026836113d7565b9150611d4782611ce0565b604082019050919050565b60006020820190508181036000830152611d6b81611d2f565b9050919050565b7f4f776e61626c653a2063616c6c6572206973206e6f7420746865206f776e6572600082015250565b6000611da86020836113d7565b9150611db382611d72565b602082019050919050565b60006020820190508181036000830152611dd781611d9b565b9050919050565b7f45524332303a206d696e7420746f20746865207a65726f206164647265737300600082015250565b6000611e14601f836113d7565b9150611e1f82611dde565b602082019050919050565b60006020820190508181036000830152611e4381611e07565b9050919050565b7f45524332303a206275726e2066726f6d20746865207a65726f2061646472657360008201527f7300000000000000000000000000000000000000000000000000000000000000602082015250565b6000611ea66021836113d7565b9150611eb182611e4a565b604082019050919050565b60006020820190508181036000830152611ed581611e99565b9050919050565b7f45524332303a206275726e20616d6f756e7420657863656564732062616c616e60008201527f6365000000000000000000000000000000000000000000000000000000000000602082015250565b6000611f386022836113d7565b9150611f4382611edc565b604082019050919050565b60006020820190508181036000830152611f6781611f2b565b905091905056fe446567656e2073686f70206974656d733a20312e2044474e206d65726368283130302044474e29200a3120322e2044474e204e46542835302044474e29200a3220332e2044474e204f7574666974202836302044474e29200a3320342e2044474e20536b696e202833302044474e29a2646970667358221220cbae16f2c80c6bc75413bf0f3887020c08ba3dd583700fd787af1ad46db3c96964736f6c63430008120033",
  "linkReferences": {},
  "deployedLinkReferences": {}
}